:100000000C9445000C9400000C9400000C9400002B
:100010000C9400000C9400000C9400000C94000060
:100020000C94FF010C9440010C9400000C9400000F
:100030000C9400000C9400000C9475000C940000CB
:100040000C9400000C9400000C9400000C94000030
:100050000C94000000000000FF03CC03990366032A
:1000600033030003CD029A02670234020102CE017B
:10007000B901680135010201CF009C00690036001A
:100080000F000400040054000000F894EE27ECBBBD
:10009000F1E0FBBFEBBFE5BFF8E1F1BDE1BD8DE0F5
:1000A000A2E0BB27ED938A95E9F780E094E0A0E613
:1000B000ED930197E9F7E2E8F0E0859195910097DB
:1000C00061F0A591B59105901590BF01F0010590E3
:1000D0000D920197E1F7FB01F0CFEFE5EDBFE4E012
:1000E000EEBFC0E6D1E00C94B10D0E94CB0DE091C3
:1000F0001E02A0E6B1E0F0E0EE0FFF1FAE0FBF1F43
:10010000E4B1F5B1ED93FC930E94B60CA0911E02F0
:10011000AF5FA0931E02A23010F40C949300E0E0B5
:10012000E0931E02AE2EA0901E02E0911E02E05C43
:10013000E7B9E7B1E06CE7B9EFECE6B90E94D90D99
:100140001895A0916D01A13011F40C940201E09179
:100150006E01E03011F00C94E7009B9904C0E2E3DB
:10016000E093660105C09A9903C0EAE0E093660156
:10017000E0916601E03011F40C94E600E091670133
:10018000A0916601EA1711F00C94DF000E94E70DC0
:1001900010F40C94DE00E1E0E0936E01E091660162
:1001A000E0936801E1E0E0936D01E0E0E093690134
:1001B000E0936701E09366010E947B0807C0E0912D
:1001C0006601E0936701E0E0E09369011BC09A9B40
:1001D00003C09B9B01C001C013C00E94E70D10F437
:1001E0000C94FF00E0E0E0936501E0936C01E09384
:1001F0006E01E0936901E0939E010E94F00D02C040
:100200000E9403010895E0E0E0936901E0916C0130
:10021000E13011F00C942B01E0916501E03011F018
:100220000C942A01AAE6B1E00E94F60DA0916A01A1
:10023000B0916B01AC32E1E0BE0710F40C942A01DE
:100240000E94FC0D11F00C9428010E94020E02C0C5
:100250000E94020E00C00895E0E0E0936D01E0937B
:1002600064010895A0916D01A13011F00C943F013B
:10027000E0916801E0936401E0E0E0936D0108958E
:100280000E94CB0DE0EFE2BFA7EBB1E00E94F60DBC
:10029000A091B701B091B801A93EE3E0BE0710F408
:1002A0000C945A01ECE4F4E0E093B701F093B80148
:1002B000C59A13C0A091B701B091B801A43FE1E085
:1002C000BE0710F40C946C01E091CC01E03011F009
:1002D0000C946C010E94A701C598A2E8B1E00E94AD
:1002E000F60DE0918901E03011F40C947901AF989A
:1002F00001C0AF9AE0918A01E03011F40C948201C0
:10030000C19801C0C19AE0919601E03011F40C94BB
:100310008B01C09801C0C09A0E942E0D0E94C60990
:100320000E94490BE0919501E03011F40C949B017F
:100330000E94DE0A09C00E9433080E94FC0D11F0E1
:100340000C94A4010E941B060E94D90D1895E091FF
:10035000CB01E03011F00C94FE01E091CD01E030D2
:1003600011F00C94C2010E940A0EA63010F40C94F5
:10037000C1010E94120EE093CD010E94160EE0937F
:1003800080013CC0E0918001E03011F00C94D60176
:100390000E940A0EA53110F40C94D5010E94160E8D
:1003A000E0939601E1E0E093800128C0E13011F094
:1003B0000C94E8010E940A0EA13010F40C94E7019D
:1003C0000E941A0EE0938101E2E0E093800116C0E2
:1003D000E23011F00C94FE010E941E0E0E94220ECB
:1003E000AB3010F40C94FD010E94280EE0938001C4
:1003F000E1E0E093CC01E093CB0100C008950E94BE
:10040000CB0DEFEFEDBDE1EBECBDE0919501E03000
:1004100011F40C941002A3E7B1E00E94F60D0DC098
:100420000E9469030E94FC0D11F00C9419020E94B5
:1004300088040E94A1000E943806E0918801E03003
:1004400011F00C944002E0917601E03011F40C942C
:100450003C020E942C0EAB3010F40C943B02E0E006
:10046000E09376010E941E0EE0939B01E1E0E09391
:100470008801E0938A0103C0E0E0E0939B010FC094
:100480000E942C0EA43010F40C944F02E0E0E09394
:100490007601E0939B01E0938801E0938A01AFEB42
:1004A000B1E00E94F60D0E94CE080E9402090E944F
:1004B00080080E949808A0918D01B0918E01A13210
:1004C000E3E0BE0710F40C946D020E94340EE0933A
:1004D0007701E0E0E0937A011DC00E943A0EE470DB
:1004E0000E943F0E11F00C948702E0917A01EF5FB9
:1004F000E0937A01A0917A01AA3110F40C9486025B
:10050000E1E0E0937701E0E0E0937A0103C0E0E00E
:10051000E0937A01E0917701E03011F00C949402BD
:10052000E0E0E093860145C0E0918601E03011F4FF
:100530000C94D902E0918701E03011F00C94AC02E8
:10054000E1E0E0938701E0918D01F0918E01E0936D
:100550008F01F09390012DC0CC9919C0E0E0E09399
:10056000A301E0918F01F0919001309711F00C946C
:10057000BF02E0E0E09387010E94430E07C0AFE8AE
:10058000B1E0ED91FD913197FE93EE9312C0E091B1
:10059000A301EF5FE093A301A091A301A63010F4A3
:1005A0000C94D902E0E0E0938701E093A3010E945C
:1005B000430E0E94D90D18951A9311E0103011F4D2
:1005C0000C94FE020E943201E0916401EA3011F0C5
:1005D0000C94F2020E942C01E1E0E0936C010E9475
:1005E00038030BC0E23311F00C94FD020E942C0181
:1005F0000E94000302C00E942C01E0CF19910895CF
:10060000E0919C01E03011F00C940D03E091C501E4
:10061000E03011F00C940D0301C029C02297E0E0F6
:10062000E883E983E1E0E0939E01E0938901E1E062
:10063000F0E0E883F983E881F981309711F40C94B4
:100640003603E0919E01E03011F40C942E03E0910A
:100650009C01E03011F00C942E0307C00E941A0E8A
:10066000E0938901E0E0E883E983E5CF22960895ED
:10067000E0919C01E03011F40C9454030E94490E67
:10068000AE980E94500EA898A9980E94600EE09320
:100690009B01E1E0E0937601E0E0E093A3010E949A
:1006A000340EE093880114C00E94490EA8980E945D
:1006B000500EA9980E94600EE093A301E0E0E09341
:1006C0009B01E1E0E09376010E94340EE093880103
:1006D0000895E0917C01E03011F40C9472030E94C3
:1006E000790302C00E94D0070E9432040E9453087E
:1006F0000895E0917E01E03011F00C94DA03CE9978
:1007000055C00E940A0EA63010F40C94D503E09157
:100710009C01E03011F00C949403E091C501E030AD
:1007200011F00C94940310C00E94FC0D11F00C9475
:100730009D030E94640E0E946D0E0E94120E0E9484
:10074000770E0E947A0E31C00E94FC0D11F00C94BD
:10075000CF03E091C601E03011F40C94BC03E091AA
:10076000C701E03011F40C94BC03E091C801E03003
:1007700011F40C94BC0301C009C00E94640E0E94D5
:10078000120E0E94770E0E947A0E08C00E94640E1C
:100790000E94120E0E94770E0E947A0E06C00E94DE
:1007A000120E0E94770E0E947A0E03C0E0E0E093E2
:1007B000810157C0E0917F01E03011F00C941A04E0
:1007C000E0918001E03011F00C94F4030E940A0ED5
:1007D000A53110F40C94F3030E94160EE0939601D9
:1007E000E1E0E093800125C0E13011F00C940604B3
:1007F0000E940A0EA13010F40C9405040E941A0EF7
:10080000E0938101E2E0E093800113C0E23011F057
:100810000C9419040E941E0E0E94220EAB3010F49C
:100820000C9419040E94280EE0938001E1E0E0930B
:100830007F0117C0CE9B11C0E0E0E0938A010E94C7
:100840000A0EAB3010F40C942C040E94280EE09396
:100850007F01E0E0E0937E0104C00E941A0EE09365
:1008600081010895E0919301E03011F00C9445046A
:10087000E0919C01E03011F00C944504E091C50139
:10088000E03011F00C94450401C02FC0CD9929C06F
:100890000E948B0E10F40C9470040E94FC0D11F059
:1008A0000C946E04E091C601E03011F40C946504E0
:1008B000E091C701E03011F40C946504E091C801A7
:1008C000E03011F40C94650401C005C0A89AE1E081
:1008D000E093C50102C00E94940E02C00E94940ED3
:1008E00003C0E0E0E093940112C0CD9B0DC00E94D4
:1008F0008B0E10F40C9483040E941A0EE093940162
:10090000E0E0E093930103C0E0E0E09394010895F8
:10091000E0919701E03011F00C94A404E091C6013D
:10092000E03011F00C94A104E091C701E03011F423
:100930000C94A104E091C801E03011F40C94A104DE
:1009400001C002C00E94A00E08950E94A50E0E9440
:10095000AE0EE091CF01EF5FE093CF01A091CF0108
:10096000A13010F40C941606E0E0E093CF010E9451
:10097000A50E0E94A7100E94BF0E0E94D00E10F478
:100980000C9479050E94D80E0E94E10E0E94B210CC
:100990000E94BF0E0E94E60EE093EA01F093EB0185
:1009A0006093EC017093ED01E091EE01F091EF01A5
:1009B0006091F0017091F101A091EA01B091EB0119
:1009C0008091EC019091ED010E94EB0E0E94D00EFF
:1009D00010F40C9478050E94FE0E0E94070FE0931D
:1009E000F201F093F3016093F4017093F5010E941A
:1009F000FE0E0E94E60EE093F601F093F70160937D
:100A0000F8017093F901E091F201F091F301609126
:100A1000F4017091F5010E940C0F0E94190FA09132
:100A2000F601B091F7018091F8019091F9010E94CF
:100A3000A210E093FA01F093FB016093FC01709324
:100A4000FD010E94220F0E942C0F0E94D00E10F474
:100A50000C9478050E942C0F0E94070FE093FE0172
:100A6000F093FF0160930002709301020E942C0F2B
:100A70000E94E60EE0931202F093130260931402B8
:100A8000709315020E94350FA0911202B0911302CB
:100A900080911402909115020E94A2100E943E0FB4
:100AA000E091FE01F091FF0160910002709101025E
:100AB0000E940C0F0E94470F0E94510F0E94D00EFF
:100AC00010F40C9478050E94510F0E94070F0E94A9
:100AD0003E0F0E94350F0E940C0F0E945A0FE0E05B
:100AE000E0931602E0931702E0931802E0931902D4
:100AF0007CC0E091E601F091E7016091E80170911E
:100B0000E9010E94D80E0E94A210E093E601F09342
:100B1000E7016093E8017093E9010E94640F0E946D
:100B2000D00E10F40C94F3050E94640F0E94070F7E
:100B3000E093DA01F093DB016093DC017093DD0157
:100B40000E94640F0E94E60EE0930602F0930702F3
:100B500060930802709309020E946D0FA091060233
:100B6000B091070280910802909109020E94A210A0
:100B70000E94760F0E947F0F0E94890F0E94D00E64
:100B800010F40C94F2050E94890F0E94070F0E9436
:100B9000760F0E94890F0E94E60EE0930A02F093FE
:100BA0000B0260930C0270930D020E946D0F0E9465
:100BB0000C0F0E94920F0E949C0F0E94D00E10F406
:100BC0000C94F2050E949C0F0E94070FE0930E0206
:100BD000F0930F0260931002709311020E940C0FA9
:100BE0000E94A50F02C00E94AF0F0E94A50EE093C5
:100BF000DE01F093DF016093E0017093E101E09189
:100C0000DE01F091DF01A091D401B091D501EA0F8E
:100C1000FB1FE093D401F093D5010E94AF0FE09148
:100C2000D401F091D5010E94B90F04C00E94A50E15
:100C30000E94AE0E0895E091CE01E03011F40C94C4
:100C40003406E0919C01E03011F00C943406E09100
:100C50009E01E03011F00C943406E091C501E030C3
:100C600011F00C94340601C002C00E94A50408953E
:100C7000E0917701E03011F40C949106E091970136
:100C8000E03011F00C945106E0919C01E03011F03D
:100C90000C945106E0919E01E03011F00C94510645
:100CA00001C01AC0CC9912C00E94BE0F0E94C10F91
:100CB00010F40C946506E1E0E0938901E09386016D
:100CC0000E94C70FE1E0E093970105C00E94C70FA3
:100CD000E0E0E093890124C0E0919701E03011F455
:100CE0000C947906E0919E01E03011F00C947906A5
:100CF00001C016C0E0918601E03011F00C9490061E
:100D0000CC9B0CC00E94BE0F0E94C10F10F40C942B
:100D10008D060E94600E0E94CD0F02C00E94C70F78
:100D20003EC1E0919701E03011F00C94AA06E091E9
:100D30009C01E03011F00C94AA06E0919E01E03095
:100D400011F00C94AA06E091C501E03011F00C946A
:100D5000AA0601C0ABC0CC99A3C00E94BE0F0E94DE
:100D6000C10F10F40C944F070E94FC0D11F00C946D
:100D70004707E091C601E03011F40C94C606E091FB
:100D8000C701E03011F40C94C60601C07BC0E1E05D
:100D9000E093CE01E0E0E0931A02E0931B02E093BF
:100DA0001C02E0931D02E0E0F0E0E093D401F09338
:100DB000D5010E94B90F0E94AF0FE0E0E093DE0181
:100DC000E093DF01E093E001E093E101E093D601DD
:100DD000E093D701E093E201E093E301E093E401C3
:100DE000E093E5010E947F0FE0E0E093EA01E093E9
:100DF000EB01E093EC01E093ED010E94220FE0E0B3
:100E0000E093F601E093F701E093F801E093F90134
:100E10000E94470FE0E0E093FE01E093FF01E093C2
:100E20000002E09301020E94920FE0E0E0930602CC
:100E3000E0930702E0930802E0930902E093D801EF
:100E4000E093D9010E94A50FE0E0E0930E02E09349
:100E50000F02E0931002E09311020E945A0FE1E0AA
:100E6000E093C801E0938901E0E0E0938201E09320
:100E700083010E94C70FE1E0E0939701E0E0E09377
:100E8000C50104C00E94A00E0E94C70F08C0E1E087
:100E9000E09389010E94C70FE1E0E093970105C04C
:100EA0000E94C70FE0E0E093890179C0E0919701CB
:100EB000E03011F40C946307E0919E01E03011F0F2
:100EC0000C94630701C06BC0CC9B67C00E94BE0F2F
:100ED0000E94C10F10F40C94CC070E94FC0D11F07D
:100EE0000C94C8070E94190F0E94FE0E0E94A210C7
:100EF0000E94510F0E94A2100E94640F0E94A21033
:100F00000E94890F0E94A2100E949C0F0E94EB0E6B
:100F10000E94070FE093EE01F093EF016093F00160
:100F20007093F101E091EE01F091EF01A091D601F3
:100F3000B091D701EA0FFB1F0E94B90FA091D60113
:100F4000B091D7011A9710F40C94B507E0E0E09344
:100F5000CE010E94600E0E94CD0FE0E0E093C6013A
:100F6000E093C701E093C80112C0E0E0E093CE0136
:100F70000E94600E0E94CD0F0E94A00EE1E0E0935F
:100F8000D001E1E0F0E0E0938401F093850104C03A
:100F90000E94600E0E94CD0F02C00E94C70F0895EC
:100FA000E0919801E03011F00C941F08CE9943C0F5
:100FB0000E94D50FA63010F40C941A08E0E0E093DC
:100FC00089010E94FC0D11F00C941808E0919C011D
:100FD000E03011F00C94F307E091C501E03011F01E
:100FE0000C94F30707C00E94640E0E946D0E0E94CD
:100FF000DD0F1DC0E091C601E03011F40C940D0826
:10100000E091C701E03011F40C940D08E091C801A3
:10101000E03011F40C940D0801C005C00E94640E6C
:101020000E94DD0F04C00E94640E0E94DD0F02C00A
:101030000E94DD0F03C0E0E0E0939A0113C0CE9B55
:101040000EC00E94D50FAB3010F40C942E080E94F5
:101050001E0EE0939A01E0E0E093980103C0E0E007
:10106000E0939A010895A0918901A13011F00C94A8
:101070004F089C9B0AC066247394E3E0E71510F0C8
:101080000C9444087724A99A09C077246394E3E078
:10109000E61510F00C944E086624A99803C0772436
:1010A0006624A9980895E0919C01E03011F40C9415
:1010B0006008E091C501E03011F00C9460081AC09E
:1010C000CF9B15C0E0919901EF5FE0939901A0914A
:1010D0009901A53010F40C947608E0E0E0939901B2
:1010E000E1E0E093A201E0939C01A89A03C0E0E054
:1010F000E09399010895E1E0E0936F01AE9A0895BD
:10110000E0916F01E03011F40C949708E0917001C8
:10111000EF5FE0937001A0917001A63010F40C9481
:101120009708E0E0E0936F01AE98E09370010895B6
:10113000E0919C01E03011F00C94A508E091C5010C
:10114000E03011F00C94A50828C0E0917201E03065
:1011500011F00C94BD08E0917101EF5FE093710113
:10116000AE980E94F30F10F40C94BC08E0E0E093FA
:101170007101E1E0E093720110C0E0917101EF5F55
:10118000E0937101AE9A0E94F30F10F40C94CD0815
:10119000E0E0E0937101E09372010895E1E0E91568
:1011A00011F00C940109B394E82DE03011F00C9487
:1011B000E408AE9AE2E3EB1510F00C94E308AE9865
:1011C000E1E08E2EBB241DC0E13011F00C94F30839
:1011D000AE98E9E1EB1510F00C94F208AE9AE2E05B
:1011E0008E2EBB240EC0E23011F00C940109AE9A91
:1011F000E2E3EB1510F00C940109AE988824BB24AF
:1012000099240895E2E0E91511F00C941209B394C1
:10121000AE9AE2E3EB1510F00C941209AE98882414
:10122000BB2499240895E0E0E0937301E0937401F6
:101230002197E1E0E883E881E03011F40C94C409DF
:101240000E94FA0F999710F00C942E09E1E0E093B8
:101250009F01E4E00E94FF0FAE9A95C00E94FA0F32
:10126000A135E0E0BE0710F00C943D09E3E0E09307
:101270009F01ECE00E94051086C00E94FA0FA9377A
:10128000E0E0BE0710F00C944D09E7E0E0939F0109
:10129000ECE10E94FF0FAE9876C00E94FA0FA13ACF
:1012A000E0E0BE0710F00C945C09EFE0E0939F01D2
:1012B000ECE30E94051067C00E94FA0FA93CE0E031
:1012C000BE0710F00C946B09EFE1E0939F01ECE78F
:1012D0000E94FF0F58C00E94FA0FA13FE0E0BE0736
:1012E00010F00C947A09EFE3E0939F01ECEF0E9479
:1012F000051049C00E94FA0FA931E1E0BE0710F0C5
:101300000C948C09EFE7E0939F01ECEFE093A001D0
:10131000E1E0E093A10137C00E94FA0FA134E1E0BF
:10132000BE0710F00C949B09EFEFE0939F01ECEFE8
:101330000E940B1028C00E94FA0FA936E1E0BE07F8
:1013400010F00C94AD09EFEFE0939F01EDEFE09307
:10135000A001E7E0E093A10116C00E94FA0FA139B5
:10136000E1E0BE0710F00C94BD090E941110E0935B
:10137000A001EFE0E093A10106C0E0E0E093950159
:10138000E8830E94DC0257CF21960895E0919501F1
:10139000E03011F00C94DD0AAA978AE2A0E0B0E0F8
:1013A000E8E5F0E00E94F810E881F9810E9415104C
:1013B00010F00C94E0090E9411100E940B10FCC068
:1013C000EA81FB810E94151010F00C94EC090E9438
:1013D00011100E940B10F0C0EC81FD810E941510CD
:1013E00010F00C94F8090E9411100E940B10E4C038
:1013F000EE81FF810E94151010F00C94040A0E94E7
:1014000011100E940B10D8C0E885F9850E941510B4
:1014100010F00C94130A0E941110E093A001E1E077
:10142000E093A101C9C0EA85FB850E94151010F068
:101430000C941F0A0E9411100E940510BDC0EC857B
:10144000FD850E94151010F00C942D0AEFEFE0932B
:101450009F01EFE70E940510AFC0EE85FF850E9457
:10146000151010F00C943B0AEFEFE0939F01EFE3AF
:101470000E940510A1C0E889F9890E94151010F09A
:101480000C94490AEFEFE0939F01EFE10E940510F1
:1014900093C0EA89FB890E94151010F00C94570A3A
:1014A000EFEFE0939F01EFE00E94051085C0EC890B
:1014B000FD890E94151010F00C94650AEFEFE0937F
:1014C0009F01E7E00E94051077C0EE89FF890E9426
:1014D000151010F00C94730AEFEFE0939F01E3E016
:1014E0000E94051069C0E88DF98D0E94151010F05A
:1014F0000C94810AEFEFE0939F01E1E00E94051058
:101500005BC0EA8DFB8D0E94151010F00C948C0AC4
:10151000EFEF0E941C1050C0EC8DFD8D0E94151045
:1015200010F00C94970AEFE70E941C1045C0EE8D56
:10153000FF8D0E94151010F00C94A20AEFE30E9498
:101540001C103AC0E8A1F9A10E94151010F00C94EB
:10155000AD0AEFE10E941C102FC0EAA1FBA10E947E
:10156000151010F00C94B80AEFE00E941C1024C073
:10157000ECA1FDA10E94151010F00C94C30AE7E045
:101580000E941C1019C0EEA1FFA10E94151010F0BE
:101590000C94CE0AE3E00E941C100EC0E8A5F9A549
:1015A0000E94151010F00C94D90AE1E00E941C1062
:1015B00003C0E0E00E941C10AA9608950E94430B0D
:1015C000E0919501E03011F40C94420BE0917C0124
:1015D000E03011F00C94FE0A9D990CC00E9420107E
:1015E00010F40C94F90AE1E0E0937C01E0E0E09370
:1015F000790103C0E0E0E093790110C09D9B0BC02E
:101600000E94201010F40C940A0BE0E0E0937C019F
:10161000E093790103C0E0E0E0937901E0917D017E
:10162000E03011F00C942C0B0E943A0EE8700E94EE
:101630003F0E11F00C94280B0E94291010F40C940A
:10164000270BE1E0E0937D01E0E0E0937B0103C044
:10165000E0E0E0937B0116C00E943A0EE8700E9421
:101660003F0E11F40C943F0B0E94291010F40C94BF
:101670003E0BE0E0E0937D01E0937B0103C0E0E0FE
:10168000E0937B010895E0E0EABBE9B3E0937501E4
:101690000895EFEFE1BB87E08A95F1F7E2BBC29ACC
:1016A000C39AC49AE091A401E03011F00C945C0B51
:1016B0000E94D60BC29810C0E13011F00C94640B5C
:1016C0000E94E20BC39808C0E23011F00C946C0B3E
:1016D0000E94E70BC49800C0E091A401EF5FE09383
:1016E000A401A091A401A33010F40C947A0BE0E0C3
:1016F000E093A4010895AA931A930A9310E000E0DE
:10170000EA81E1701E2F113011F00C94890B0E7FCD
:1017100001C00160EA81E2701E2F123011F00C94BA
:10172000930B0D7F01C00260EA81E4701E2F14301C
:1017300011F00C949D0B0B7F01C00460EA81E870EE
:101740001E2F183011F00C94A70B077F01C0086002
:10175000EA81E0711E2F103111F00C94B10B0F7E55
:1017600001C00061EA81E0721E2F103211F00C946A
:10177000BB0B0F7D01C00062EA81E0741E2F1034A4
:1017800011F00C94C50B0F7B01C00064EA81E07876
:101790001E2F103811F00C94CF0B0F7701C000688A
:1017A0000093D3011981088123960895E0919F0148
:1017B000E160E0939F01E0939F01A0919F010E944F
:1017C00032100895A091A0010E94321008950E9445
:1017D000FC0D11F00C94860CE0919C01E03011F4AA
:1017E0000C94F70B0E9438100E943E102DC0E0911F
:1017F000C501E03011F40C94240CE091C901E030F3
:1018000011F00C94140CE091A101EF770E944110AB
:101810000E94461010F40C94130CE0E0E093CA010F
:10182000E1E0E093C90110C00E943810E093A101EB
:101830000E943E100E94461010F40C94240CE0E02C
:10184000E093CA01E093C9010E943E10E091840137
:10185000F0918501309711F00C945F0CE091C60176
:10186000E03011F40C94390CE091A101E8600E9481
:101870004110E091C701E03011F40C94440CE09168
:10188000A101E4600E944110E091C801E03011F430
:101890000C945E0CE091A101E2600E944F10A99BA4
:1018A00006C0E091A101E0620E944F1005C0E091E6
:1018B000A101EF7D0E944F100E943E1026C0E091D2
:1018C000D201E03011F00C94760CE091A101E37F9D
:1018D0000E9441100E94541010F40C94750CE0E02A
:1018E000E093D101E1E0E093D2010FC0E091A101CA
:1018F000EE600E9441100E94541010F40C94850C6C
:10190000E0E0E093D101E093D2012FC0E0919C018F
:10191000E03011F40C94920C0E943810E093A10175
:101920000E943E10E0919701E03011F00C949F0C62
:10193000E0919E01E03011F00C949F0C10C0A99B27
:1019400006C0E091A101E2620E944F1005C0E09143
:10195000A101ED7D0E944F100E943E1002C00E9426
:101960003E100E943E100E943E100895AA2011F0E1
:101970000C94F40CE0916001F09161010E945D1003
:101980000E9468100E947110E093A901F093AA01CF
:101990006093AB017093AC01ABEBB1E00E94F60D2C
:1019A000A091BB01B091BC011A9710F40C94F30CF8
:1019B0000E9468100E947C10EAE0F0E060E070E0B5
:1019C0000E948D10E093B901F093BA01E0E0E0933A
:1019D000A901E093AA01E093AB01E093AC01E0938D
:1019E000BB01E093BC0139C0E0916201F091630159
:1019F0000E945D100E9494100E947110E093AD014E
:101A0000F093AE016093AF017093B001ADEBB1E024
:101A10000E94F60DA091BD01B091BE01D29710F4C5
:101A20000C942D0D0E9494100E947C10E2E3F0E0D3
:101A300060E070E00E948D10E0938D01F0938E01C4
:101A4000E0E0E093AD01E093AE01E093AF01E093FD
:101A5000B001E093BD01E093BE010895A091BF01E4
:101A6000B091C0011B9710F40C94680DEBE0F0E00E
:101A7000E093BF01F093C001E091B901F091BA0188
:101A8000E093C101F093C2010E949D10A83EE3E0E3
:101A9000BE0710F40C94530DE8EEF3E0E093B501AB
:101AA000F093B60115C00E949D10139710F00C948E
:101AB0005F0DE0E0E093B501E093B60109C00E943C
:101AC0009D10E6E00E94AC10E093B501F093B601E2
:101AD0000895E0E0EABBECEFEBBBEFEFE7BBEFED27
:101AE000E8BBE3ECE4BBECEBE5BBEFEFE1BBE2BB57
:101AF000E0E0E2BDE5E0E3BFEBE9E2BFE0E0ECBF40
:101B0000EFBDE5E0EEBDEFEFEDBDE1EBECBDE0E0FC
:101B1000EBBDEABDE9BDE8BDE5BDE4BDE3BDE5E083
:101B2000E9BFEBB7EBBFE0E0E5BFE4BFEABFEBB96D
:101B3000EAB9E0BDE0BDE9B9EDB9EEB9E0E8E8B970
:101B4000E0E0E0BFE0E4E7B9EDECE6B90E94FC0DAF
:101B500011F00C94B00DA0E0B0E0E1E00E94E710BD
:101B600008950E94690DC598F894E0E0E09396010D
:101B70000E941A0EE0938901A998A898AE98EFEFF9
:101B8000E2BBC298C398C498E1E0E09395017894D1
:101B90000E941309FFCF0A921A92FA926A937A93DB
:101BA0008A939A93AA93BA93EA93FA93EFB7EA9334
:101BB0000895E991EFBFF991E991B991A9919991AE
:101BC000899179916991F990199009900895E0911E
:101BD0006901EF5FE0936901A0916901A530089563
:101BE000E0E0E0936A01E0936B010895ED91FD91CF
:101BF0003196FE93EE930895A0E0B0E00E94DB10D2
:101C0000E0300895A0E0B0E0E1E00E94E710E0934A
:101C10006501E6CFE0918101EF5FE0938101A09142
:101C200081010895E1E0E09396010895E0E0E093FA
:101C300081010895E0E0E0938A010895E0E0E093F7
:101C400096010895E0938901E1E0E0938A01E2CFF3
:101C5000E0E0E0938A01EACFE0919B01EF5FE0933F
:101C60009B01A0919B010895E0E0E0938601E09341
:101C700087010895E0917501E09378010895E0935C
:101C80007801E0300895E0E0E0938901E093860177
:101C90000895E1E0E0939601E0E0E0939C0108956F
:101CA000E0E0E093C501E093C601E093C701E09353
:101CB000C801E093D001E0938401E0938501089589
:101CC000E0E0E09389010895E1E0E093C601E0E0FF
:101CD000E093C701E093C8010895E0E0E093C501F7
:101CE000E093D001E0938401E09385010895E093AF
:101CF0007E019CCFE0937F01E0E0E0938001A89813
:101D0000AE98A998E0939C01E093A301E09386012B
:101D1000E09387010895E0919401EF5FE0939401CF
:101D2000A0919401A6300895E1E0E093C701E0930B
:101D30008A01E0E0E0939401E1E0E09393010895EB
:101D4000E1E0E093C501A89A0895E091DA01F091ED
:101D5000DB016091DC017091DD010895A091B90172
:101D6000B091BA01882799270E94A210E093DA0166
:101D7000F093DB016093DC017093DD010895E09343
:101D8000DA01F093DB016093DC017093DD01A09137
:101D9000DA01B091DB018091DC019091DD010895C1
:101DA000AF3FE3E0BE07E0E08E07E0E09E07089566
:101DB000A091DA01B091DB018091DC019091DD010D
:101DC0000895EFEFF3E060E070E008950E94E10E07
:101DD0000E94D71008950E94A210E093EE01F093A4
:101DE000EF016093F0017093F101A091EE01B091C9
:101DF000EF018091F0019091F1010895A091EE0121
:101E0000B091EF018091F0019091F10108950E944D
:101E1000E10E0E94B21008950E94D80E0E94A210F6
:101E2000E093DA01F093DB016093DC017093DD0154
:101E30000895E091FA01F091FB016091FC0170912D
:101E4000FD010895E0E0E093EE01E093EF01E093FF
:101E5000F001E093F1010895A091FA01B091FB0126
:101E60008091FC019091FD010895E0911602F0919E
:101E7000170260911802709119020895E0931602FA
:101E8000F093170260931802709319020895E0E02E
:101E9000E093FA01E093FB01E093FC01E093FD0184
:101EA0000895A0911602B0911702809118029091A6
:101EB00019020895E0E0E0931202E0931302E09328
:101EC0001402E09315020895A091E601B091E70194
:101ED0008091E8019091E9010895E0910202F0916A
:101EE000030260910402709105020895E0930202DA
:101EF000F093030260930402709305020895E0E0FA
:101F0000E093E601E093E701E093E801E093E90163
:101F10000895A0910202B091030280910402909171
:101F200005020895E0E0E0930202E0930302E093EB
:101F30000402E09305020895A0910A02B0910B02F9
:101F400080910C0290910D020895E0E0E0930A0266
:101F5000E0930B02E0930C02E0930D020895E0E0A1
:101F6000E093DA01E093DB01E093DC01E093DD0133
:101F70000895E093D601F093D7010895A1E9B1E067
:101F800035CEA0919101B091920116970895E0E0AD
:101F9000E0939101E09392010895E0939101E09321
:101FA0009201E0E0E09397010895E0919A01EF5FDC
:101FB000E0939A01A0919A010895E1E0E0939601DF
:101FC000A898AE98E0E0E0939A01E1E0E0939801F0
:101FD000A998E0E0E0939C01E093A301E0938601DF
:101FE000E09387010895E1E0E0939D01A0917101E4
:101FF000A5310895A0917301B09174010895E09303
:10200000A001E0E3E093A1010895E093A001E0E0E6
:10201000E093A1010895E093A001E3E0E093A10122
:102020000895EFEFE0939F010895A091B501B0915D
:10203000B601EA17FB070895E0939F01E0E0E5CFC2
:10204000E0917901EF5FE0937901A0917901A333E9
:102050000895E0917B01EF5FE0937B01A0917B010C
:10206000A33308950E947B0BE091D301E2BB089556
:10207000E091A101E061E093A1010895A091A10187
:10208000F1CFE093A101E093A101F8CFE091CA0163
:10209000EF5FE093CA01A091CA01A9320895E093CD
:1020A000A101E093A1010895E091D101EF5FE093D8
:1020B000D101A091D101A932089566277727E09335
:1020C000A501F093A6016093A7017093A80108955C
:1020D000E091A901F091AA016091AB017091AC016E
:1020E0000895A091A501B091A6018091A7019091BA
:1020F000A8010E94A2100895E093B101F093B201EB
:102100006093B3017093B401A091B101B091B20199
:102110008091B3019091B40108950E94B210E093B0
:10212000C301F093C4010895E091AD01F091AE01B7
:102130006091AF017091B0010895A091C101B0917B
:10214000C2010895EA0FFB1F681F791F0895EE0F63
:10215000FF1F661F771F08956E2F6A9FF0016B9F08
:10216000F00D08953F934F935F930024112444276B
:10217000552730E2AA0FBB1F881F991F001C111C96
:10218000441F551F0E1A1F0A460B570B28F40E0E3C
:102190001F1E461F571F01C0A1603A9559F7FD0148
:1021A000BC01D001CA015F914F913F910895DADFE0
:1021B000FD01BC010895E199FECFFF93FFB7F894AC
:1021C000AEBBBFBBE09AEDB3FFBFFF910895E19BAB
:1021D00002C0A895FCCF9FB7F894AEBBBFBBE09AF6
:1021E0008DB3E81719F0EDBBE29AE19A9FBF08950D
:1021F000AC0FBD1F05900D928A95E1F70895FFFF82
:10220000FFFFFFFFFFFFFFFFFFFFFFFFFFFFFFFFDE
:10221000FFFFFFFFFFFFFFFFFFFFFFFFFFFFFFFFCE
:10222000FFFFFFFFFFFFFFFFFFFFFFFFFFFFFFFFBE
:10223000FFFFFFFFFFFFFFFFFFFFFFFFFFFFFFFFAE
:00000001FF
